:100000000C942A000C943F000C943F000C943F0089
:100010000C943F000C943F000C943F000C943F0064
:100020000C943F000C943F000C943F000C943F0054
:100030000C943F000C943F000C943F000C943F0044
:100040000C943F000C943F000C943F000C943F0034
:100050000C943F0011241FBECFE5D8E0DEBFCDBF1A
:1000600010E0A0E6B0E0EEEAF3E002C005900D92E9
:10007000A038B107D9F70E94A4010C94D5010C94C3
:1000800000009B01AC0184E0220F331F441F551F69
:100090008A95D1F760E074E284EF90E00E94B301AA
:1000A0002150310930BD29B988E18AB984E880BD81
:1000B00008955D9BFECF8CB908955F9BFECF8CB1F8
:1000C0000895CF93DF93EC018991882319F00E9462
:1000D0005900FACFDF91CF910895813069F028F06F
:1000E000823089F08330B1F0089581E0611101C060
:1000F00080E081958ABB089581E0611101C080E0B4
:10010000819587BB089581E0611101C080E08195F0
:1001100084BB089581E0611101C080E0819581BBBD
:100120000895683008F043C08130A9F028F082308B
:1001300009F1833071F108952AB381E090E001C0A4
:10014000880F6A95EAF7442311F0822B02C080954C
:1001500082238ABB089527B381E090E001C0880F15
:100160006A95EAF7442311F0822B02C0809582231E
:1001700087BB089524B381E090E001C0880F6A95A1
:10018000EAF7442311F0822B02C08095822384BBBE
:10019000089521B381E090E001C0880F6A95EAF7E5
:1001A000442311F0822B02C08095822381BB0895E5
:1001B000813041F028F0823039F0833039F00895F1
:1001C0006BBB089568BB089565BB089562BB089535
:1001D000683008F043C08130A9F028F0823009F17E
:1001E000833071F108952BB381E090E001C0880F56
:1001F0006A95EAF7442311F0822B02C0809582238E
:100200008BBB089528B381E090E001C0880F6A9508
:10021000EAF7442311F0822B02C08095822388BB29
:10022000089525B381E090E001C0880F6A95EAF750
:10023000442311F0822B02C08095822385BB089550
:1002400022B381E090E001C0880F6A95EAF7442369
:1002500011F0822B02C08095822382BB08958130E9
:1002600049F030F0823041F0833041F480B308959A
:1002700089B3089586B3089583B3089580E00895FF
:100280006830B0F4813049F030F0823041F0833092
:1002900079F480B305C089B303C086B301C083B3CA
:1002A00090E002C0959587956A95E2F78170089570
:1002B00080E00895813051F028F0823059F0833089
:1002C00069F008958BB380958BBB089588B38095B2
:1002D00088BB089585B3809585BB089582B38095CA
:1002E00082BB0895683078F5813081F028F0823043
:1002F000B9F08330F9F008952BB381E090E001C0AC
:10030000880F6A95EAF782278BBB089528B381E0AE
:1003100090E001C0880F6A95EAF7822788BB0895AC
:1003200025B381E090E001C0880F6A95EAF7822743
:1003300085BB089522B381E090E001C0880F6A95E3
:10034000EAF7822782BB089560E07BE480E090E0DA
:100350000E94410080E690E00E94610083E790E007
:100360000E946100FFCFA1E21A2EAA1BBB1BFD0158
:100370000DC0AA1FBB1FEE1FFF1FA217B307E40784
:10038000F50720F0A21BB30BE40BF50B661F771FDC
:10039000881F991F1A9469F76095709580959095BC
:0E03A0009B01AC01BD01CF010895F894FFCF81
:1003AE0048656C6C6F2C20456D62656464656421D4
:1003BE000D0A00446F6E277420527573680D0A0083
:00000001FF
